:1000000028C04CC04BC04AC049C0FBC447C046C012
:1000100045C044C043C042C041C040C03FC00000D2
:10002000000036000000000037000000000038002B
:10003000020202020202020202020102040810206D
:1000400020041008010200000400000000008209E2
:10005000DC0911241FBECFE5D2E0DEBFCDBF10E02A
:10006000A0E6B0E0ECEBF8E102C005900D92A83CF0
:10007000B107D9F721E0A8ECB0E001C01D92A3318F
:10008000B207E1F710E0C8E2D0E003C02197FE011B
:10009000DEDAC732D107D1F7FED404CCB1CFCF938B
:1000A000DC01C62F8091FB009091FC00A817B907D6
:1000B000B0F5E0910101EE2381F0F0E0862F90E0B1
:1000C000BF0181DAC92F842F90E0BF017CDA492F6C
:1000D000822F90E0BF0177DA292F30910701E0915C
:1000E0000201F09103018091040138131AC0CD017F
:1000F00063E070E068DA8E0F9F1FE0910401E80F63
:10010000F92FF11DC083E0910501E80FF92FF11DD2
:10011000408330910601830F911DFC012083CF9114
:100120000895CD01880F991F880F991F8E0F9F1F6B
:10013000FC01E30FF11D1082E0CF8F929F92AF92EE
:10014000BF92EF92FF920F931F93CF93DF93DC0147
:100150008A019B018091FB009091FC00A817B907D0
:1001600008F040C0A90166277727F42E812E922E31
:10017000A32EBB24D82DE02EC0910101CC2389F001
:10018000EC2FF0E0842F90E0BF011DDAF92E882DCE
:1001900090E0BF0118DAD92F802F90E0BF0113DA69
:1001A000E92E40910701E0910201F0910301809155
:1001B0000401481322C0CD0163E070E004DAE80FC7
:1001C000F91FA0910401AE0FBF2FB11DFC92A091A9
:1001D0000501AE0FBF2FB11DDC9380910601E80F22
:1001E000F11DE082DF91CF911F910F91FF90EF9071
:1001F000BF90AF909F908F900895AA0FBB1FAA0F3A
:10020000BB1FEA0FFB1F032F112722273327902F35
:10021000CC2321F08C2F90E0B801D5D9DF01A40FB9
:10022000B11D9C93CECF1F93CF93DF9311E0180F96
:1002300020910101121789F1C0910201D0910301AF
:10024000215031F18F3FD1F430E050E040E06FEFCA
:100250007FEF80E090E079D9FE014091FD00509160
:10026000FE00CF018C1B9D0B84179507A0F48081A5
:1002700090E0B901A8D990833196EFCF812F90E01B
:10028000982F88270197622F70E0BAD99B01E4CF9D
:1002900030E020E0E1CF10930101DF91CF911F9179
:1002A00008959FE9980F9A3108F48052EFEBE80F18
:1002B000EA3108F083C00E2E000CFF0BEF59FE4F01
:1002C000099419C01DC023C027C02BC030C034C042
:1002D00038C039C03AC03EC042C045C049C04AC01B
:1002E0004BC04CC050C051C052C053C054C055C088
:1002F00056C05AC05EC082E08093F90081E004C01D
:1003000084E08093F90088E08093F800089584E009
:100310008093F9008AE0F8CF83E08093F90084E0CD
:10032000F3CF81E08093F9001092F800089584E003
:100330008093F90082E0E8CF83E08093F90086E0C3
:10034000E3CF84E0EFCF82E0EDCF84E08093F9004B
:1003500087E0DACF83E08093F90085E0D5CF84E0B1
:100360008093F900D1CF82E08093F90083E0CCCF75
:1003700082E0F6CF83E0EACF84E0DFCF84E08093B1
:10038000F9008DE0C1CF83E0D3CF83E0CBCF81E014
:10039000E7CF83E0B1CF84E0AFCF83E0E1CF84E06B
:1003A0008093F90089E0B0CF84E08093F9008BE07E
:1003B000ABCF84E08093F9008CE0A6CF1092F900D7
:1003C000B3CF823089F018F4813051F00895833032
:1003D00019F0843009F008958CB58F7D8CBD089597
:1003E0008AB58F778ABD08958AB58F7DFBCFCF936D
:1003F000DF93282F30E0F901EC5BFF4F8491F90186
:10040000E65CFF4FD491F901E05DFF4FC491CC232E
:1004100089F08111D6DFEC2FF0E0EE0FFF1FE65DD3
:10042000FF4FA591B4918FB7F894EC91D095DE234E
:10043000DC938FBFDF91CF910895CF93DF9390E04E
:10044000FC01E65CFF4F2491805D9F4FFC0184918D
:100450008823C9F090E0880F991FFC01EC5DFF4FE5
:10046000A591B491FC01E65DFF4FC591D491611156
:100470000DC09FB7F8948C91209582238C9388812E
:10048000282328839FBFDF91CF910895623051F4D4
:100490009FB7F8943C91822F809583238C93E881B9
:1004A0002E2BEFCF8FB7F894EC912E2B2C938FBF80
:1004B000EACF3FB7F8948091F4009091F500A091B5
:1004C000F600B091F70022B708B601FE05C02F3F35
:1004D00019F00196A11DB11D3FBFBA2FA92F982F6A
:1004E0008827BC01CD01620F711D811D911D43E064
:1004F000660F771F881F991F4A95D1F708950F93AC
:100500001F93CF93DF9300D000D000D01F92CDB7C0
:10051000DEB78091020190910301892B09F49DC0FF
:10052000C8DF009108011091090120910A01309162
:100530000B01601771078207930740F4609308016D
:100540007093090180930A0190930B0100910801B7
:100550001091090120910A0130910B01601B710B70
:10056000820B930B6C32714081059105C8F2F894AF
:100570008091FD009091FE009A838983A0910201F1
:10058000B0910301FD0131968C918F831B8298B34A
:1005900080910E01982B9E8398B3809589238D833B
:1005A0008D818C838F8187FF02C08E818C835E81D9
:1005B0006D814F813C812B8189819A8158BB262F87
:1005C00038BB00C046FD252F68BB00C058BB362F86
:1005D00028BB00C045FD352F68BB00C058BB262F87
:1005E00038BB00C044FD252F68BB00C058BB362F68
:1005F00028BB00C043FD352F68BB00C058BB262F69
:1006000038BB00C042FD252F68BB00C058BB362F49
:1006100028BB00C041FD352F68BB00C058BB262F4A
:1006200038BB00C040FD252F68BB019758BB362F53
:1006300028BB419147FD352F68BB01F64F833C83B2
:100640002B839A838983789434DF609308017093B5
:10065000090180930A0190930B0127960FB6F89435
:10066000DEBF0FBECDBFDF91CF911F910F910895D7
:100670002FB7F8946091F0007091F1008091F20032
:100680009091F3002FBF08951092CA001092C900F4
:10069000809160008093C80090E0019667E070E070
:1006A000C3D7809360000895E091DE00E83090F4B5
:1006B000F0E0E45AFC4F099407C006C00CC00EC01D
:1006C00010C012C014C013C083E290E09093630086
:1006D0008093620008958EE690E0F8CF89E190E083
:1006E000F5CF80E091E0F2CF8CE390E0EFCF8AE0AD
:1006F00090E0ECCF4F925F926F927F928F929F9299
:10070000AF92BF92CF92DF92EF92FF920F931F931F
:10071000CF93DF930091600010E0E090C800F12CCF
:10072000F701E258FF4FC081D0E04090C9005090DF
:10073000CA00712C612C4C01990FAA08BB08F80162
:10074000E258FF4F608170E06C1B7D0B072E000CA0
:10075000880B990BA3019201DFD6A5019401F5D670
:10076000C20FD31FCF3FD10519F014F0CFEFD0E067
:10077000D7FDC0E0F701E958FF4FC080D12CF80148
:10078000E958FF4F608170E06C197D09072E000C5D
:10079000880B990BA3019201BFD6A5019401D5D670
:1007A0002C0D3D1D2F3F310519F014F02FEF30E0D7
:1007B000690137FDC12CF701E059FF4FE080F12CB2
:1007C000F801E059FF4F608170E06E197F09072E34
:1007D000000C880B990BA30192019ED6A5019401F0
:1007E000B4D62E0D3F1D2F3F310519F014F02FEF19
:1007F00030E037FD20E0E22E10E000E02E2D4C2D01
:100800006C2FC8014CDC0F5F1F4F04301105B1F78E
:10081000DF91CF911F910F91FF90EF90DF90CF90DC
:10082000BF90AF909F908F907F906F905F904F9010
:100830000895CF93DF93D0E0C0E040E050E0BA01EC
:10084000CE017BDC2196C430D105B9F7DF91CF9181
:100850000895CF93C82FEDDFCC23D1F08091D30042
:100860008370282F30E04FEF5FEF6FEF70E0833041
:1008700069F0C90163E070E0A6D68B579F4FFC0179
:1008800080819181A281AC016A2F70E0C90155DCA1
:10089000CF9135CECF92DF92EF92FF92CF9310920D
:1008A000C800C1E0C09360001092CA001092C90055
:1008B0001092CC001092CD001092CB001092D0007C
:1008C0001092CF001092CE001092D100C093610020
:1008D0001092D3001092D2001092D4001092D50042
:1008E000C7DE6093D6007093D7008093D8009093B2
:1008F000D900BEDE6093DA007093DB008093DC00E9
:100900009093DD008BE48FDC8091DE00833039F43E
:1009100088E2CF91FF90EF90DF90CF9084CC85302C
:1009200011F48FEFF6CF8730C9F58FEF7CDCA0DEB6
:100930006093DA007093DB008093DC009093DD001D
:10094000CF91FF90EF90DF90CF9008958091F800C5
:1009500090E02150330B02C0959587952A95E2F7D8
:10096000C1E080FDC3E081E074DF82DE6B017C01C9
:100970006C2F70E090E080E028E730E040E050E04D
:10098000CBD5C60ED71EE81EF91EC092D600D09257
:10099000D700E092D800F092D900D2CF863081F60D
:1009A000C093D50083E57DDC2091F9002111CECFE5
:1009B0001092D5005DDE68587F4F8F4F9F4F609338
:1009C000D6007093D7008093D8009093D900B8CF09
:1009D000CF92DF92EF92FF92CF93DF936B017C0176
:1009E000D0E0C0E0B701A601CE01A7DB2196C4305C
:1009F000D105C1F7DF91CF91FF90EF90DF90CF90BD
:100A00007ECD1F920F920FB60F9211242F933F931A
:100A10008F939F93AF93BF938091F0009091F100DB
:100A2000A091F200B091F3003091EF0026E0230F87
:100A30002D3758F50296A11DB11D2093EF0080932C
:100A4000F0009093F100A093F200B093F300809136
:100A5000F4009091F500A091F600B091F700019696
:100A6000A11DB11D8093F4009093F500A093F600B2
:100A7000B093F700BF91AF919F918F913F912F91CC
:100A80000F900FBE0F901F90189529E8230F039623
:100A9000A11DB11DD2CF78948AB582608ABD8AB576
:100AA00081608ABD83B7826083BF83B7816083BF63
:100AB00089B7826089BF80B7826080BF80B781605C
:100AC00080BF329A319A3098379A8CB580648CBD49
:100AD00062E084E0B2DC8091FF009091000197FD1C
:100AE000B6C061E0AADC8091FF0081DC81E08093E8
:100AF000FA008BE498DB03DD17B8369A3699FECFFF
:100B000064B175B1072E000C880B990B6115710546
:100B10008105910509F0F7D41092DE00BBDEC4DD3B
:100B2000C0E58C2E912CA12CB12CA2DD6B017C0197
:100B3000C092EB00D092EC00E092ED00F092EE005B
:100B4000E8E4F0E08491EEE3F0E0D491E4E3F0E057
:100B5000C491CC2309F47EC0811133DCEC2FF0E08A
:100B6000EE0FFF1FE25EFF4FA591B4918C91D82349
:100B700031E020E009F430E0832F922F282F2170FC
:100B800030916500231751F0C092E700D092E80041
:100B9000E092E900F092EA00209365004091E700BE
:100BA0005091E8006091E9007091EA002601370158
:100BB000441A550A660A770AB301A2014432510564
:100BC0006105710588F030916400231769F0209366
:100BD0006400892B09F041C0C092E300D092E40088
:100BE000E092E500F092E6008091DF009091E00055
:100BF000A091E100B091E200B701A601481B590B9A
:100C00006A0B7B0B8091620090916300B0E0A0E0E2
:100C1000481759076A077B0708F45BC0C092DF00DA
:100C2000D092E000E092E100F092E200E091DE007C
:100C3000E83008F063C3F0E0E15EF94F099438C092
:100C40004FC06DC1B7C112C247C24EC201C310929C
:100C5000FA004FCF90E080E091CF8091E300909137
:100C6000E400A091E500B091E600A7019601281BE1
:100C7000390B4A0B5B0BDA01C901803737E1930767
:100C8000A105B10530F087E08093DE0003DE0CDDC6
:100C9000ABCF883B9B40A105B10510F086E0F4CFB7
:100CA0008091DE0090E0019666E070E0BDD4ECCF6C
:100CB00084EB90E01FDD8091C9009091CA000196FD
:100CC0009093CA008093C900853B910508F0DCDC55
:100CD00016DC80E090E0892B09F427CF91D925CF4D
:100CE00084EB90E007DDC1D328EE33E040E050E034
:100CF0002CD46035710508F096C0B7D324E030E0FD
:100D000040E050E022D4062F10E08091FB0090914B
:100D1000FC00412C512C32010817190708F062C061
:100D20009091070140910401E0900201F0900301CD
:100D300020910101C92FD0E0A0910501B0E0E09120
:100D40000601F0E094137FC0C80163E070E03BD47B
:100D50008E0D9F1DC80FD91F3881A80FB91FDC91B8
:100D6000E80FF91FC081222399F1C22ED12CF12C5A
:100D7000E12C632F70E0762F6627072E000C880B7E
:100D8000990BA7019601FDD33901552444246D2FF9
:100D900070E0762F6627072E000C880B990BA701B1
:100DA0009601EFD3542F432F322F2227422A532A62
:100DB000642A6C2F70E0762F6627072E000C880BB4
:100DC000990BA7019601DDD3422A532A642A0AC04F
:100DD0004D2E512C712C612C762C652C542C4424D6
:100DE000632A4C2A842D90E08C549F4F8F3F9105AD
:100DF00019F010F08FEF90E0452D50E04C545F4F0C
:100E00004F3F510519F010F04FEF50E0662D70E0A4
:100E10006C547F4F6F3F710519F010F06FEF70E069
:100E2000282FC8013CD96BDB8091C9009091CA0082
:100E300001969093CA008093C900853B910508F400
:100E400048CF22DC46CFC801880F991F880F991F11
:100E50008E0D9F1DC80FD91F3881EC01C40FD11D05
:100E6000C881A80FB91F7C90E80FF91F608022236A
:100E700009F446C0C22ED12CF12CE12C632F70E076
:100E8000762F6627072E000C880B990BA701960179
:100E900078D3522E4424332422246C2F70E0762FF2
:100EA0006627072E000C880B990BA701960169D3C2
:100EB000A90133272227222A332A442A552A662DBC
:100EC00070E0762F6627072E000C880B990BA70180
:100ED000960157D3222A332A442A552A672D70E0D7
:100EE000762F6627072E000C880B990BA701960119
:100EF00048D3542F432F322F22273201210164CFB0
:100F00002C2E312C512C412C210133242224532A04
:100F10002628D201C10197292C013D0163CFC09140
:100F2000CD00CC2341F0C12CC13039F477247A9420
:100F3000C12CD12C09C0CC24CA9481E0C23009F064
:100F400080E0D82ED194712C10E000E093E0E92EDF
:100F5000F12CD091CC00C8018D0F911DB70164D345
:100F60002D2D472D6C2D892B19F020E040E060E0FD
:100F7000C80195D80F5F1F4F0430110551F7DF5F8F
:100F8000D33050F4D093CC008091CB008F5F84316C
:100F900030F48093CB009CCE1092CC00F5CF109211
:100FA000CB008C2F90E0019663E070E03DD38093FE
:100FB000CD008ECEE090CF00F090D000C12CDD248B
:100FC000DA9490E4E91691E0F906F0F0E701C054F4
:100FD000D14060E570E06C1B7D0B90E080E02FEF6E
:100FE00030E040E050E098D2A5019401CAD2D22E60
:100FF000BE0190E080E02FEF30E040E050E08CD286
:10100000A5019401BED2C22E7090CE00072D10E033
:101010000F5F1F4F03701127602ED0E0C0E020E06B
:1010200040E06D2D7C1641F0A0E4EA16A1E0FA063E
:1010300010F06C2D6C1260E0CE0131D82196C430D6
:10104000D10569F7BFEFEB1AFB0AE0E9EE16E1E024
:10105000FE0628F4F092D000E092CF0039CE109234
:10106000D0001092CF000093CE0032CEE2DBD0E071
:10107000C0E01091D1008C2F811B51F0813021F103
:101080008F3F11F1823011F08E3F39F461E001C0E1
:101090006FEF20E040E0CE0102D82196C430D105A8
:1010A00041F780916100180F111684F41093D1005C
:1010B0008091D10083300CF40BCE83E08093D1007B
:1010C0008FEF8093610004CE6CE3E3CF1092D100E8
:1010D00081E080936100ECCF8FEFA5D86FEF7FEFB9
:1010E0008FEF90E075DCF5CDC3DA6B017C01809168
:1010F000D6009091D700A091D800B091D9002601D8
:101100003701481A590A6A0A7B0AD301C201B7FD9E
:10111000E0CD4091D400C42FD0E08091D500882349
:10112000C1F180E096DB1092D5008091F9008150EA
:10113000990BC817D90774F428E7C20ED11CE11C1B
:10114000F11CC092D600D092D700E092D800F09265
:10115000D900BFCD8091D3002091D20090E06AE009
:1011600070E031D282579F4F820F911DDC011196A2
:101170008C9167E0811163E070E090E080E028E707
:1011800030E040E050E0C8D1C60ED71EE81EF91E80
:10119000D8CF8091F9008150990BC817D907BCF4BA
:1011A0004F5F4093D40021E02093D5002091F800B8
:1011B00030E0841B910902C0359527958A95E2F7A6
:1011C00020FF3BC0C3E081E044DB6C2FD5CF2091F2
:1011D000D30030E04091D200C9016AE070E0F3D161
:1011E00082579F4FFC01E40FF11D8181882339F163
:1011F0004F5F4093D2008091D3002091D20090E0C5
:101200006AE070E0E0D182579F4F820F911DFC0190
:10121000808147D81092D40081E08093D5008091DE
:10122000F80090E02091F9002150330B02C0959511
:1012300087952A95E2F780FDC5CFC1E0C4CF2F5F27
:101240003F4F237033272093D3001092D200D3CF87
:101250000FDA6B017C018091DA009091DB00A091A4
:10126000DC00B091DD0026013701481A590A6A0AEC
:101270007B0AD301C201B7FD2CCDF7D024E030E0CA
:1012800040E050E062D1C62FF0D027E030E040E0EF
:1012900050E05BD1862F67E0A7D144244A94542CB8
:1012A000642C712C963071F0892F90E063E070E02F
:1012B0008AD18A549F4FFC0180819181A2812C01A7
:1012C0006A2E712CB6DAB301A2018C2F90E035D7CB
:1012D00016D9CBD021EA30E040E050E036D1645C52
:1012E0007F4FC60ED71EE11CF11CC092DA00D092CF
:1012F000DB00E092DC00F092DD00EBCC60E070E01F
:10130000CB01F0CE1092FA00109201011092080168
:101310001092090110920A0110920B0181E0809352
:101320000701809304011092050182E08093060179
:101330008CE090E09093FE008093FD008ED190931E
:10134000030180930201009771F12CE0FC011192DE
:101350002A95E9F784E090E09093FC008093FB00ED
:1013600083E090E0909300018093FF008091FA0069
:10137000882329F061E083E060D883E038D8E3E394
:10138000F0E0E491F0E0EE0FFF1FE65DFF4F859186
:10139000949190930D0180930C01EDE3F0E0E491C2
:1013A000E0930E0108951092FE001092FD0010923D
:1013B000FC001092FB00D4CF8091020190910301B8
:1013C000E8D18091FF009091000197FD02C060E09C
:1013D00034C808958F929F92AF92BF92CF92DF92BE
:1013E000EF92FF92CF93DF93EC01688179818A813C
:1013F0009B81611571058105910521F464E279ED08
:101400008BE597E02DE133EF41E050E09ED04901BC
:101410005A0127EA31E440E050E07ED06B017C01C4
:101420002CEE34EF4FEF5FEFC501B40175D0C60E5F
:10143000D71EE81EF91EF7FE06C081E0C81AD108C3
:10144000E10880E8F80AC882D982EA82FB82C701F3
:10145000B6019F77DF91CF91FF90EF90DF90CF9013
:10146000BF90AF909F908F9008958F929F92AF9270
:10147000BF92CF92DF92EF92FF92609166007091DF
:101480006700809168009091690061157105810580
:10149000910521F464E279ED8BE597E02DE133EFDE
:1014A00041E050E052D049015A0127EA31E440E0DE
:1014B00050E032D06B017C012CEE34EF4FEF5FEF48
:1014C000C501B40129D0C60ED71EE81EF91EF7FECD
:1014D00006C081E0C81AD108E10880E8F80AC09285
:1014E0006600D0926700E0926800F0926900C70140
:1014F000B6019F77FF90EF90DF90CF90BF90AF90B5
:101500009F908F900895609366007093670080931A
:101510006800909369000895EE27FF27AA27BB274C
:1015200008C0A20FB31FE41FF51F220F331F441F73
:10153000551F969587957795679598F37040A9F70D
:10154000009799F7BD01CF010895052E97FB16F47A
:1015500000940FD057FD05D014D007FC02D046F4FC
:1015600008C050954095309521953F4F4F4F5F4FA4
:10157000089590958095709561957F4F8F4F9F4FFF
:101580000895A1E21A2EAA1BBB1BFD010DC0AA1FC4
:10159000BB1FEE1FFF1FA217B307E407F50720F0DC
:1015A000A21BB30BE40BF50B661F771F881F991F57
:1015B0001A9469F760957095809590959B01AC01A0
:1015C000BD01CF0108950024552704C0080E591FFE
:1015D000880F991F009729F076956795B8F37105E4
:1015E000B9F7802D952F0895991B79E004C0991FB4
:1015F000961708F0961B881F7A95C9F7809508956D
:10160000AA1BBB1B51E107C0AA1FBB1FA617B70728
:1016100010F0A61BB70B881F991F5A95A9F7809544
:101620009095BC01CD01089597FB072E16F4009408
:1016300006D077FD08D0E4DF07FC05D03EF4909596
:1016400081959F4F0895709561957F4F0895EE0F96
:10165000FF1F0590F491E02D09940F931F93CF93F2
:10166000DF938230910510F482E090E0E091110167
:10167000F091120130E020E0B0E0A0E0309799F462
:101680002115310509F44AC0281B390B24303105D6
:10169000D8F58A819B816115710589F1FB019383DE
:1016A0008283FE0111C0408151810281138148175C
:1016B0005907E0F04817590799F4109761F012960E
:1016C0000C93129713961C933296CF01DF91CF9112
:1016D0001F910F9108950093110110931201F4CFFF
:1016E0002115310551F04217530738F0A901DB01EC
:1016F0009A01BD01DF01F801C1CFEF01F9CF90934D
:10170000120180931101CDCFFE01E20FF31F8193EF
:1017100091932250310939832883D7CF20910F012B
:1017200030911001232B41F420916C0030916D0019
:101730003093100120930F0120916A0030916B00CB
:101740002115310541F42DB73EB740916E005091FF
:101750006F00241B350BE0910F01F0911001E2178F
:10176000F307A0F42E1B3F0B2817390778F0AC01C4
:101770004E5F5F4F2417350748F04E0F5F1F5093A1
:10178000100140930F01819391939FCFF0E0E0E02F
:101790009CCFCF93DF930097E9F0FC01329713823F
:1017A0001282A0911101B0911201ED0130E020E010
:1017B0001097A1F420813181820F931F20910F0196
:1017C000309110012817390709F061C0F09310011A
:1017D000E0930F01DF91CF910895EA01CE17DF0763
:1017E000E8F54A815B819E0141155105B1F7E90198
:1017F000FB83EA8349915991C40FD51FEC17FD076C
:1018000061F4808191810296840F951FE90199838B
:101810008883828193819B838A83F0E0E0E0129643
:101820008D919C9113970097B9F52D913C9111974B
:10183000CD010296820F931F20910F01309110016C
:101840002817390739F6309751F510921201109286
:101850001101B0931001A0930F01BCCFD383C283B9
:1018600040815181840F951FC817D90761F44E5FDD
:101870005F4F88819981480F591F518340838A8126
:101880009B81938382832115310509F0B0CFF093BA
:101890001201E09311019ECFFD01DC01C0CF138244
:1018A0001282D7CF10E0C8E2D0E003C0FE01CFDE45
:0C18B0002196C932D107D1F7F894FFCF80
:1018BC0001011E0001010100000000001301800065
:1018CC000000FFFFFF00FF00FF00FF00FFFFFF0015
:1018DC000000FFFFFF0000FF00FF00FF000053456A
:1018EC004352455400000000434F4445574F524467
:1018FC00000049530000000000000000564943540A
:10190C004F52590000000000FF00FF00FF0000FFD5
:08191C00FF00FF00FF00FFFFC8
:00000001FF
